{
  "_format": "hh-sol-artifact-1",
  "contractName": "CertificateRegistry",
  "sourceName": "contracts/CertificateRegistry.sol",
  "abi": [
    {
      "inputs": [],
      "stateMutability": "nonpayable",
      "type": "constructor"
    },
    {
      "anonymous": false,
      "inputs": [
        {
          "indexed": false,
          "internalType": "address",
          "name": "newAdmin",
          "type": "address"
        }
      ],
      "name": "AdminAdded",
      "type": "event"
    },
    {
      "anonymous": false,
      "inputs": [
        {
          "indexed": false,
          "internalType": "string",
          "name": "certificateId",
          "type": "string"
        },
        {
          "indexed": false,
          "internalType": "string",
          "name": "certificateHash",
          "type": "string"
        },
        {
          "indexed": false,
          "internalType": "address",
          "name": "issuer",
          "type": "address"
        },
        {
          "indexed": false,
          "internalType": "uint256",
          "name": "timestamp",
          "type": "uint256"
        }
      ],
      "name": "CertificateIssued",
      "type": "event"
    },
    {
      "inputs": [
        {
          "internalType": "address",
          "name": "_newAdmin",
          "type": "address"
        }
      ],
      "name": "addAdmin",
      "outputs": [],
      "stateMutability": "nonpayable",
      "type": "function"
    },
    {
      "inputs": [
        {
          "internalType": "string",
          "name": "",
          "type": "string"
        }
      ],
      "name": "certificates",
      "outputs": [
        {
          "internalType": "string",
          "name": "certificateHash",
          "type": "string"
        },
        {
          "internalType": "address",
          "name": "issuer",
          "type": "address"
        },
        {
          "internalType": "uint256",
          "name": "timestamp",
          "type": "uint256"
        }
      ],
      "stateMutability": "view",
      "type": "function"
    },
    {
      "inputs": [
        {
          "internalType": "address",
          "name": "",
          "type": "address"
        }
      ],
      "name": "isAdmin",
      "outputs": [
        {
          "internalType": "bool",
          "name": "",
          "type": "bool"
        }
      ],
      "stateMutability": "view",
      "type": "function"
    },
    {
      "inputs": [
        {
          "internalType": "string",
          "name": "_certificateId",
          "type": "string"
        },
        {
          "internalType": "string",
          "name": "_certificateHash",
          "type": "string"
        }
      ],
      "name": "issueCertificate",
      "outputs": [],
      "stateMutability": "nonpayable",
      "type": "function"
    },
    {
      "inputs": [],
      "name": "superAdmin",
      "outputs": [
        {
          "internalType": "address",
          "name": "",
          "type": "address"
        }
      ],
      "stateMutability": "view",
      "type": "function"
    },
    {
      "inputs": [
        {
          "internalType": "string",
          "name": "_certificateId",
          "type": "string"
        }
      ],
      "name": "verifyCertificate",
      "outputs": [
        {
          "internalType": "string",
          "name": "",
          "type": "string"
        },
        {
          "internalType": "address",
          "name": "",
          "type": "address"
        },
        {
          "internalType": "uint256",
          "name": "",
          "type": "uint256"
        }
      ],
      "stateMutability": "view",
      "type": "function"
    }
  ],
  "bytecode": "0x608060405234801561001057600080fd5b50336000806101000a81548173ffffffffffffffffffffffffffffffffffffffff021916908373ffffffffffffffffffffffffffffffffffffffff16021790555060018060003373ffffffffffffffffffffffffffffffffffffffff1673ffffffffffffffffffffffffffffffffffffffff16815260200190815260200160002060006101000a81548160ff02191690831515021790555061120c806100b76000396000f3fe608060405234801561001057600080fd5b50600436106100625760003560e01c8063211bbe711461006757806324d7806c1461008357806329575f6a146100b357806370480275146100d15780638b23d875146100ed5780638f2b91ea1461011f575b600080fd5b610081600480360381019061007c9190610968565b610151565b005b61009d60048036038101906100989190610a3e565b610391565b6040516100aa9190610a86565b60405180910390f35b6100bb6103b1565b6040516100c89190610ab0565b60405180910390f35b6100eb60048036038101906100e69190610a3e565b6103d5565b005b61010760048036038101906101029190610acb565b610581565b60405161011693929190610bac565b60405180910390f35b61013960048036038101906101349190610acb565b610726565b60405161014893929190610bac565b60405180910390f35b600160003373ffffffffffffffffffffffffffffffffffffffff1673ffffffffffffffffffffffffffffffffffffffff16815260200190815260200160002060009054906101000a900460ff16806101f4575060008054906101000a900473ffffffffffffffffffffffffffffffffffffffff1673ffffffffffffffffffffffffffffffffffffffff163373ffffffffffffffffffffffffffffffffffffffff16145b610233576040517f08c379a000000000000000000000000000000000000000000000000000000000815260040161022a90610c5c565b60405180910390fd5b60006002836040516102459190610cb8565b90815260200160405180910390206002015414610297576040517f08c379a000000000000000000000000000000000000000000000000000000000815260040161028e90610d1b565b60405180910390fd5b60405180606001604052808281526020013373ffffffffffffffffffffffffffffffffffffffff168152602001428152506002836040516102d89190610cb8565b908152602001604051809103902060008201518160000190816102fb9190610f47565b5060208201518160010160006101000a81548173ffffffffffffffffffffffffffffffffffffffff021916908373ffffffffffffffffffffffffffffffffffffffff160217905550604082015181600201559050507ffa7468fb48fb83622c2209222cf44e88523933fddb73d3b07ecf89400639b3ba828233426040516103859493929190611019565b60405180910390a15050565b60016020528060005260406000206000915054906101000a900460ff1681565b60008054906101000a900473ffffffffffffffffffffffffffffffffffffffff1681565b60008054906101000a900473ffffffffffffffffffffffffffffffffffffffff1673ffffffffffffffffffffffffffffffffffffffff163373ffffffffffffffffffffffffffffffffffffffff1614610463576040517f08c379a000000000000000000000000000000000000000000000000000000000815260040161045a906110de565b60405180910390fd5b600160008273ffffffffffffffffffffffffffffffffffffffff1673ffffffffffffffffffffffffffffffffffffffff16815260200190815260200160002060009054906101000a900460ff16156104f0576040517f08c379a00000000000000000000000000000000000000000000000000000000081526004016104e79061114a565b60405180910390fd5b60018060008373ffffffffffffffffffffffffffffffffffffffff1673ffffffffffffffffffffffffffffffffffffffff16815260200190815260200160002060006101000a81548160ff0219169083151502179055507f44d6d25963f097ad14f29f06854a01f575648a1ef82f30e562ccd3889717e339816040516105769190610ab0565b60405180910390a150565b606060008060006002856040516105989190610cb8565b908152602001604051809103902060020154036105ea576040517f08c379a00000000000000000000000000000000000000000000000000000000081526004016105e1906111b6565b60405180910390fd5b60006002856040516105fc9190610cb8565b908152602001604051809103902060405180606001604052908160008201805461062590610d6a565b80601f016020809104026020016040519081016040528092919081815260200182805461065190610d6a565b801561069e5780601f106106735761010080835404028352916020019161069e565b820191906000526020600020905b81548152906001019060200180831161068157829003601f168201915b505050505081526020016001820160009054906101000a900473ffffffffffffffffffffffffffffffffffffffff1673ffffffffffffffffffffffffffffffffffffffff1673ffffffffffffffffffffffffffffffffffffffff1681526020016002820154815250509050806000015181602001518260400151935093509350509193909250565b60028180516020810182018051848252602083016020850120818352809550505050505060009150905080600001805461075f90610d6a565b80601f016020809104026020016040519081016040528092919081815260200182805461078b90610d6a565b80156107d85780601f106107ad576101008083540402835291602001916107d8565b820191906000526020600020905b8154815290600101906020018083116107bb57829003601f168201915b5050505050908060010160009054906101000a900473ffffffffffffffffffffffffffffffffffffffff16908060020154905083565b6000604051905090565b600080fd5b600080fd5b600080fd5b600080fd5b6000601f19601f8301169050919050565b7f4e487b7100000000000000000000000000000000000000000000000000000000600052604160045260246000fd5b6108758261082c565b810181811067ffffffffffffffff821117156108945761089361083d565b5b80604052505050565b60006108a761080e565b90506108b3828261086c565b919050565b600067ffffffffffffffff8211156108d3576108d261083d565b5b6108dc8261082c565b9050602081019050919050565b82818337600083830152505050565b600061090b610906846108b8565b61089d565b90508281526020810184848401111561092757610926610827565b5b6109328482856108e9565b509392505050565b600082601f83011261094f5761094e610822565b5b813561095f8482602086016108f8565b91505092915050565b6000806040838503121561097f5761097e610818565b5b600083013567ffffffffffffffff81111561099d5761099c61081d565b5b6109a98582860161093a565b925050602083013567ffffffffffffffff8111156109ca576109c961081d565b5b6109d68582860161093a565b9150509250929050565b600073ffffffffffffffffffffffffffffffffffffffff82169050919050565b6000610a0b826109e0565b9050919050565b610a1b81610a00565b8114610a2657600080fd5b50565b600081359050610a3881610a12565b92915050565b600060208284031215610a5457610a53610818565b5b6000610a6284828501610a29565b91505092915050565b60008115159050919050565b610a8081610a6b565b82525050565b6000602082019050610a9b6000830184610a77565b92915050565b610aaa81610a00565b82525050565b6000602082019050610ac56000830184610aa1565b92915050565b600060208284031215610ae157610ae0610818565b5b600082013567ffffffffffffffff811115610aff57610afe61081d565b5b610b0b8482850161093a565b91505092915050565b600081519050919050565b600082825260208201905092915050565b60005b83811015610b4e578082015181840152602081019050610b33565b60008484015250505050565b6000610b6582610b14565b610b6f8185610b1f565b9350610b7f818560208601610b30565b610b888161082c565b840191505092915050565b6000819050919050565b610ba681610b93565b82525050565b60006060820190508181036000830152610bc68186610b5a565b9050610bd56020830185610aa1565b610be26040830184610b9d565b949350505050565b7f4f6e6c792061646d696e2063616e20706572666f726d2074686973206163746960008201527f6f6e000000000000000000000000000000000000000000000000000000000000602082015250565b6000610c46602283610b1f565b9150610c5182610bea565b604082019050919050565b60006020820190508181036000830152610c7581610c39565b9050919050565b600081905092915050565b6000610c9282610b14565b610c9c8185610c7c565b9350610cac818560208601610b30565b80840191505092915050565b6000610cc48284610c87565b915081905092915050565b7f436572746966696361746520494420616c726561647920657869737473000000600082015250565b6000610d05601d83610b1f565b9150610d1082610ccf565b602082019050919050565b60006020820190508181036000830152610d3481610cf8565b9050919050565b7f4e487b7100000000000000000000000000000000000000000000000000000000600052602260045260246000fd5b60006002820490506001821680610d8257607f821691505b602082108103610d9557610d94610d3b565b5b50919050565b60008190508160005260206000209050919050565b60006020601f8301049050919050565b600082821b905092915050565b600060088302610dfd7fffffffffffffffffffffffffffffffffffffffffffffffffffffffffffffffff82610dc0565b610e078683610dc0565b95508019841693508086168417925050509392505050565b6000819050919050565b6000610e44610e3f610e3a84610b93565b610e1f565b610b93565b9050919050565b6000819050919050565b610e5e83610e29565b610e72610e6a82610e4b565b848454610dcd565b825550505050565b600090565b610e87610e7a565b610e92818484610e55565b505050565b5b81811015610eb657610eab600082610e7f565b600181019050610e98565b5050565b601f821115610efb57610ecc81610d9b565b610ed584610db0565b81016020851015610ee4578190505b610ef8610ef085610db0565b830182610e97565b50505b505050565b600082821c905092915050565b6000610f1e60001984600802610f00565b1980831691505092915050565b6000610f378383610f0d565b9150826002028217905092915050565b610f5082610b14565b67ffffffffffffffff811115610f6957610f6861083d565b5b610f738254610d6a565b610f7e828285610eba565b600060209050601f831160018114610fb15760008415610f9f578287015190505b610fa98582610f2b565b865550611011565b601f198416610fbf86610d9b565b60005b82811015610fe757848901518255600182019150602085019450602081019050610fc2565b868310156110045784890151611000601f891682610f0d565b8355505b6001600288020188555050505b505050505050565b600060808201905081810360008301526110338187610b5a565b905081810360208301526110478186610b5a565b90506110566040830185610aa1565b6110636060830184610b9d565b95945050505050565b7f4f6e6c792073757065722061646d696e2063616e20706572666f726d2074686960008201527f7300000000000000000000000000000000000000000000000000000000000000602082015250565b60006110c8602183610b1f565b91506110d38261106c565b604082019050919050565b600060208201905081810360008301526110f7816110bb565b9050919050565b7f4164647265737320697320616c726561647920616e2061646d696e0000000000600082015250565b6000611134601b83610b1f565b915061113f826110fe565b602082019050919050565b6000602082019050818103600083015261116381611127565b9050919050565b7f4365727469666963617465206e6f7420666f756e640000000000000000000000600082015250565b60006111a0601583610b1f565b91506111ab8261116a565b602082019050919050565b600060208201905081810360008301526111cf81611193565b905091905056fea264697066735822122020a9f58fc6f7ca81fee5d50bf4e828735e54625951db4f8be8b9816c5e2f2bda64736f6c63430008140033",
  "linkReferences": {},
  "deployedLinkReferences": {}
}