{
  "_format": "hh-sol-artifact-1",
  "contractName": "CertificateRegistry",
  "sourceName": "contracts/CertificateRegistry.sol",
  "abi": [
    {
      "inputs": [],
      "stateMutability": "nonpayable",
      "type": "constructor"
    },
    {
      "anonymous": false,
      "inputs": [
        {
          "indexed": false,
          "internalType": "string",
          "name": "certificateId",
          "type": "string"
        },
        {
          "indexed": false,
          "internalType": "string",
          "name": "certificateHash",
          "type": "string"
        },
        {
          "indexed": false,
          "internalType": "address",
          "name": "issuer",
          "type": "address"
        },
        {
          "indexed": false,
          "internalType": "uint256",
          "name": "timestamp",
          "type": "uint256"
        }
      ],
      "name": "CertificateIssued",
      "type": "event"
    },
    {
      "inputs": [],
      "name": "admin",
      "outputs": [
        {
          "internalType": "address",
          "name": "",
          "type": "address"
        }
      ],
      "stateMutability": "view",
      "type": "function"
    },
    {
      "inputs": [
        {
          "internalType": "string",
          "name": "",
          "type": "string"
        }
      ],
      "name": "certificates",
      "outputs": [
        {
          "internalType": "string",
          "name": "certificateHash",
          "type": "string"
        },
        {
          "internalType": "address",
          "name": "issuer",
          "type": "address"
        },
        {
          "internalType": "uint256",
          "name": "timestamp",
          "type": "uint256"
        }
      ],
      "stateMutability": "view",
      "type": "function"
    },
    {
      "inputs": [
        {
          "internalType": "string",
          "name": "_certificateId",
          "type": "string"
        },
        {
          "internalType": "string",
          "name": "_certificateHash",
          "type": "string"
        }
      ],
      "name": "issueCertificate",
      "outputs": [],
      "stateMutability": "nonpayable",
      "type": "function"
    },
    {
      "inputs": [
        {
          "internalType": "string",
          "name": "_certificateId",
          "type": "string"
        }
      ],
      "name": "verifyCertificate",
      "outputs": [
        {
          "internalType": "string",
          "name": "",
          "type": "string"
        },
        {
          "internalType": "address",
          "name": "",
          "type": "address"
        },
        {
          "internalType": "uint256",
          "name": "",
          "type": "uint256"
        }
      ],
      "stateMutability": "view",
      "type": "function"
    }
  ],
  "bytecode": "0x608060405234801561001057600080fd5b50336000806101000a81548173ffffffffffffffffffffffffffffffffffffffff021916908373ffffffffffffffffffffffffffffffffffffffff160217905550610dfd806100606000396000f3fe608060405234801561001057600080fd5b506004361061004c5760003560e01c8063211bbe71146100515780638b23d8751461006d5780638f2b91ea1461009f578063f851a440146100d1575b600080fd5b61006b600480360381019061006691906106e6565b6100ef565b005b6100876004803603810190610082919061075e565b6102db565b60405161009693929190610880565b60405180910390f35b6100b960048036038101906100b4919061075e565b610480565b6040516100c893929190610880565b60405180910390f35b6100d9610568565b6040516100e691906108be565b60405180910390f35b60008054906101000a900473ffffffffffffffffffffffffffffffffffffffff1673ffffffffffffffffffffffffffffffffffffffff163373ffffffffffffffffffffffffffffffffffffffff161461017d576040517f08c379a00000000000000000000000000000000000000000000000000000000081526004016101749061094b565b60405180910390fd5b600060018360405161018f91906109a7565b908152602001604051809103902060020154146101e1576040517f08c379a00000000000000000000000000000000000000000000000000000000081526004016101d890610a0a565b60405180910390fd5b60405180606001604052808281526020013373ffffffffffffffffffffffffffffffffffffffff1681526020014281525060018360405161022291906109a7565b908152602001604051809103902060008201518160000190816102459190610c36565b5060208201518160010160006101000a81548173ffffffffffffffffffffffffffffffffffffffff021916908373ffffffffffffffffffffffffffffffffffffffff160217905550604082015181600201559050507ffa7468fb48fb83622c2209222cf44e88523933fddb73d3b07ecf89400639b3ba828233426040516102cf9493929190610d08565b60405180910390a15050565b606060008060006001856040516102f291906109a7565b90815260200160405180910390206002015403610344576040517f08c379a000000000000000000000000000000000000000000000000000000000815260040161033b90610da7565b60405180910390fd5b600060018560405161035691906109a7565b908152602001604051809103902060405180606001604052908160008201805461037f90610a59565b80601f01602080910402602001604051908101604052809291908181526020018280546103ab90610a59565b80156103f85780601f106103cd576101008083540402835291602001916103f8565b820191906000526020600020905b8154815290600101906020018083116103db57829003601f168201915b505050505081526020016001820160009054906101000a900473ffffffffffffffffffffffffffffffffffffffff1673ffffffffffffffffffffffffffffffffffffffff1673ffffffffffffffffffffffffffffffffffffffff1681526020016002820154815250509050806000015181602001518260400151935093509350509193909250565b6001818051602081018201805184825260208301602085012081835280955050505050506000915090508060000180546104b990610a59565b80601f01602080910402602001604051908101604052809291908181526020018280546104e590610a59565b80156105325780601f1061050757610100808354040283529160200191610532565b820191906000526020600020905b81548152906001019060200180831161051557829003601f168201915b5050505050908060010160009054906101000a900473ffffffffffffffffffffffffffffffffffffffff16908060020154905083565b60008054906101000a900473ffffffffffffffffffffffffffffffffffffffff1681565b6000604051905090565b600080fd5b600080fd5b600080fd5b600080fd5b6000601f19601f8301169050919050565b7f4e487b7100000000000000000000000000000000000000000000000000000000600052604160045260246000fd5b6105f3826105aa565b810181811067ffffffffffffffff82111715610612576106116105bb565b5b80604052505050565b600061062561058c565b905061063182826105ea565b919050565b600067ffffffffffffffff821115610651576106506105bb565b5b61065a826105aa565b9050602081019050919050565b82818337600083830152505050565b600061068961068484610636565b61061b565b9050828152602081018484840111156106a5576106a46105a5565b5b6106b0848285610667565b509392505050565b600082601f8301126106cd576106cc6105a0565b5b81356106dd848260208601610676565b91505092915050565b600080604083850312156106fd576106fc610596565b5b600083013567ffffffffffffffff81111561071b5761071a61059b565b5b610727858286016106b8565b925050602083013567ffffffffffffffff8111156107485761074761059b565b5b610754858286016106b8565b9150509250929050565b60006020828403121561077457610773610596565b5b600082013567ffffffffffffffff8111156107925761079161059b565b5b61079e848285016106b8565b91505092915050565b600081519050919050565b600082825260208201905092915050565b60005b838110156107e15780820151818401526020810190506107c6565b60008484015250505050565b60006107f8826107a7565b61080281856107b2565b93506108128185602086016107c3565b61081b816105aa565b840191505092915050565b600073ffffffffffffffffffffffffffffffffffffffff82169050919050565b600061085182610826565b9050919050565b61086181610846565b82525050565b6000819050919050565b61087a81610867565b82525050565b6000606082019050818103600083015261089a81866107ed565b90506108a96020830185610858565b6108b66040830184610871565b949350505050565b60006020820190506108d36000830184610858565b92915050565b7f4f6e6c792061646d696e2063616e20706572666f726d2074686973206163746960008201527f6f6e000000000000000000000000000000000000000000000000000000000000602082015250565b60006109356022836107b2565b9150610940826108d9565b604082019050919050565b6000602082019050818103600083015261096481610928565b9050919050565b600081905092915050565b6000610981826107a7565b61098b818561096b565b935061099b8185602086016107c3565b80840191505092915050565b60006109b38284610976565b915081905092915050565b7f436572746966696361746520494420616c726561647920657869737473000000600082015250565b60006109f4601d836107b2565b91506109ff826109be565b602082019050919050565b60006020820190508181036000830152610a23816109e7565b9050919050565b7f4e487b7100000000000000000000000000000000000000000000000000000000600052602260045260246000fd5b60006002820490506001821680610a7157607f821691505b602082108103610a8457610a83610a2a565b5b50919050565b60008190508160005260206000209050919050565b60006020601f8301049050919050565b600082821b905092915050565b600060088302610aec7fffffffffffffffffffffffffffffffffffffffffffffffffffffffffffffffff82610aaf565b610af68683610aaf565b95508019841693508086168417925050509392505050565b6000819050919050565b6000610b33610b2e610b2984610867565b610b0e565b610867565b9050919050565b6000819050919050565b610b4d83610b18565b610b61610b5982610b3a565b848454610abc565b825550505050565b600090565b610b76610b69565b610b81818484610b44565b505050565b5b81811015610ba557610b9a600082610b6e565b600181019050610b87565b5050565b601f821115610bea57610bbb81610a8a565b610bc484610a9f565b81016020851015610bd3578190505b610be7610bdf85610a9f565b830182610b86565b50505b505050565b600082821c905092915050565b6000610c0d60001984600802610bef565b1980831691505092915050565b6000610c268383610bfc565b9150826002028217905092915050565b610c3f826107a7565b67ffffffffffffffff811115610c5857610c576105bb565b5b610c628254610a59565b610c6d828285610ba9565b600060209050601f831160018114610ca05760008415610c8e578287015190505b610c988582610c1a565b865550610d00565b601f198416610cae86610a8a565b60005b82811015610cd657848901518255600182019150602085019450602081019050610cb1565b86831015610cf35784890151610cef601f891682610bfc565b8355505b6001600288020188555050505b505050505050565b60006080820190508181036000830152610d2281876107ed565b90508181036020830152610d3681866107ed565b9050610d456040830185610858565b610d526060830184610871565b95945050505050565b7f4365727469666963617465206e6f7420666f756e640000000000000000000000600082015250565b6000610d916015836107b2565b9150610d9c82610d5b565b602082019050919050565b60006020820190508181036000830152610dc081610d84565b905091905056fea2646970667358221220dc00d136fba2a48bac4d9d24a35164c7c89ebbcab1901e6ade5d18b76352907b64736f6c63430008140033",
  "linkReferences": {},
  "deployedLinkReferences": {}
}