{
  "_format": "hh-sol-artifact-1",
  "contractName": "CertificateRegistry",
  "sourceName": "contracts/CertificateRegistry.sol",
  "abi": [
    {
      "inputs": [],
      "stateMutability": "nonpayable",
      "type": "constructor"
    },
    {
      "anonymous": false,
      "inputs": [
        {
          "indexed": false,
          "internalType": "address",
          "name": "newAdmin",
          "type": "address"
        }
      ],
      "name": "AdminAdded",
      "type": "event"
    },
    {
      "anonymous": false,
      "inputs": [
        {
          "indexed": false,
          "internalType": "address",
          "name": "removedAdmin",
          "type": "address"
        }
      ],
      "name": "AdminRemoved",
      "type": "event"
    },
    {
      "anonymous": false,
      "inputs": [
        {
          "indexed": false,
          "internalType": "string",
          "name": "certificateId",
          "type": "string"
        },
        {
          "indexed": false,
          "internalType": "string",
          "name": "certificateHash",
          "type": "string"
        },
        {
          "indexed": false,
          "internalType": "address",
          "name": "issuer",
          "type": "address"
        },
        {
          "indexed": false,
          "internalType": "uint256",
          "name": "timestamp",
          "type": "uint256"
        }
      ],
      "name": "CertificateIssued",
      "type": "event"
    },
    {
      "inputs": [
        {
          "internalType": "address",
          "name": "_newAdmin",
          "type": "address"
        }
      ],
      "name": "addAdmin",
      "outputs": [],
      "stateMutability": "nonpayable",
      "type": "function"
    },
    {
      "inputs": [
        {
          "internalType": "string",
          "name": "",
          "type": "string"
        }
      ],
      "name": "certificates",
      "outputs": [
        {
          "internalType": "string",
          "name": "certificateHash",
          "type": "string"
        },
        {
          "internalType": "address",
          "name": "issuer",
          "type": "address"
        },
        {
          "internalType": "uint256",
          "name": "timestamp",
          "type": "uint256"
        }
      ],
      "stateMutability": "view",
      "type": "function"
    },
    {
      "inputs": [
        {
          "internalType": "address",
          "name": "",
          "type": "address"
        }
      ],
      "name": "isAdmin",
      "outputs": [
        {
          "internalType": "bool",
          "name": "",
          "type": "bool"
        }
      ],
      "stateMutability": "view",
      "type": "function"
    },
    {
      "inputs": [
        {
          "internalType": "string",
          "name": "_certificateId",
          "type": "string"
        },
        {
          "internalType": "string",
          "name": "_certificateHash",
          "type": "string"
        }
      ],
      "name": "issueCertificate",
      "outputs": [],
      "stateMutability": "nonpayable",
      "type": "function"
    },
    {
      "inputs": [
        {
          "internalType": "address",
          "name": "_admin",
          "type": "address"
        }
      ],
      "name": "removeAdmin",
      "outputs": [],
      "stateMutability": "nonpayable",
      "type": "function"
    },
    {
      "inputs": [],
      "name": "superAdmin",
      "outputs": [
        {
          "internalType": "address",
          "name": "",
          "type": "address"
        }
      ],
      "stateMutability": "view",
      "type": "function"
    },
    {
      "inputs": [
        {
          "internalType": "string",
          "name": "_certificateId",
          "type": "string"
        }
      ],
      "name": "verifyCertificate",
      "outputs": [
        {
          "internalType": "string",
          "name": "",
          "type": "string"
        },
        {
          "internalType": "address",
          "name": "",
          "type": "address"
        },
        {
          "internalType": "uint256",
          "name": "",
          "type": "uint256"
        }
      ],
      "stateMutability": "view",
      "type": "function"
    }
  ],
  "bytecode": "0x608060405234801561001057600080fd5b50336000806101000a81548173ffffffffffffffffffffffffffffffffffffffff021916908373ffffffffffffffffffffffffffffffffffffffff16021790555060018060003373ffffffffffffffffffffffffffffffffffffffff1673ffffffffffffffffffffffffffffffffffffffff16815260200190815260200160002060006101000a81548160ff021916908315150217905550611555806100b76000396000f3fe608060405234801561001057600080fd5b506004361061007d5760003560e01c806329575f6a1161005b57806329575f6a146100ea57806370480275146101085780638b23d875146101245780638f2b91ea146101565761007d565b80631785f53c14610082578063211bbe711461009e57806324d7806c146100ba575b600080fd5b61009c60048036038101906100979190610af1565b610188565b005b6100b860048036038101906100b39190610c64565b6103c2565b005b6100d460048036038101906100cf9190610af1565b610602565b6040516100e19190610cf7565b60405180910390f35b6100f2610622565b6040516100ff9190610d21565b60405180910390f35b610122600480360381019061011d9190610af1565b610646565b005b61013e60048036038101906101399190610d3c565b6107f2565b60405161014d93929190610e1d565b60405180910390f35b610170600480360381019061016b9190610d3c565b610997565b60405161017f93929190610e1d565b60405180910390f35b60008054906101000a900473ffffffffffffffffffffffffffffffffffffffff1673ffffffffffffffffffffffffffffffffffffffff163373ffffffffffffffffffffffffffffffffffffffff1614610216576040517f08c379a000000000000000000000000000000000000000000000000000000000815260040161020d90610ecd565b60405180910390fd5b60008054906101000a900473ffffffffffffffffffffffffffffffffffffffff1673ffffffffffffffffffffffffffffffffffffffff168173ffffffffffffffffffffffffffffffffffffffff16036102a4576040517f08c379a000000000000000000000000000000000000000000000000000000000815260040161029b90610f39565b60405180910390fd5b600160008273ffffffffffffffffffffffffffffffffffffffff1673ffffffffffffffffffffffffffffffffffffffff16815260200190815260200160002060009054906101000a900460ff16610330576040517f08c379a000000000000000000000000000000000000000000000000000000000815260040161032790610fa5565b60405180910390fd5b6000600160008373ffffffffffffffffffffffffffffffffffffffff1673ffffffffffffffffffffffffffffffffffffffff16815260200190815260200160002060006101000a81548160ff0219169083151502179055507fa3b62bc36326052d97ea62d63c3d60308ed4c3ea8ac079dd8499f1e9c4f80c0f816040516103b79190610d21565b60405180910390a150565b600160003373ffffffffffffffffffffffffffffffffffffffff1673ffffffffffffffffffffffffffffffffffffffff16815260200190815260200160002060009054906101000a900460ff1680610465575060008054906101000a900473ffffffffffffffffffffffffffffffffffffffff1673ffffffffffffffffffffffffffffffffffffffff163373ffffffffffffffffffffffffffffffffffffffff16145b6104a4576040517f08c379a000000000000000000000000000000000000000000000000000000000815260040161049b90611037565b60405180910390fd5b60006002836040516104b69190611093565b90815260200160405180910390206002015414610508576040517f08c379a00000000000000000000000000000000000000000000000000000000081526004016104ff906110f6565b60405180910390fd5b60405180606001604052808281526020013373ffffffffffffffffffffffffffffffffffffffff168152602001428152506002836040516105499190611093565b9081526020016040518091039020600082015181600001908161056c9190611322565b5060208201518160010160006101000a81548173ffffffffffffffffffffffffffffffffffffffff021916908373ffffffffffffffffffffffffffffffffffffffff160217905550604082015181600201559050507ffa7468fb48fb83622c2209222cf44e88523933fddb73d3b07ecf89400639b3ba828233426040516105f694939291906113f4565b60405180910390a15050565b60016020528060005260406000206000915054906101000a900460ff1681565b60008054906101000a900473ffffffffffffffffffffffffffffffffffffffff1681565b60008054906101000a900473ffffffffffffffffffffffffffffffffffffffff1673ffffffffffffffffffffffffffffffffffffffff163373ffffffffffffffffffffffffffffffffffffffff16146106d4576040517f08c379a00000000000000000000000000000000000000000000000000000000081526004016106cb90610ecd565b60405180910390fd5b600160008273ffffffffffffffffffffffffffffffffffffffff1673ffffffffffffffffffffffffffffffffffffffff16815260200190815260200160002060009054906101000a900460ff1615610761576040517f08c379a000000000000000000000000000000000000000000000000000000000815260040161075890611493565b60405180910390fd5b60018060008373ffffffffffffffffffffffffffffffffffffffff1673ffffffffffffffffffffffffffffffffffffffff16815260200190815260200160002060006101000a81548160ff0219169083151502179055507f44d6d25963f097ad14f29f06854a01f575648a1ef82f30e562ccd3889717e339816040516107e79190610d21565b60405180910390a150565b606060008060006002856040516108099190611093565b9081526020016040518091039020600201540361085b576040517f08c379a0000000000000000000000000000000000000000000000000000000008152600401610852906114ff565b60405180910390fd5b600060028560405161086d9190611093565b908152602001604051809103902060405180606001604052908160008201805461089690611145565b80601f01602080910402602001604051908101604052809291908181526020018280546108c290611145565b801561090f5780601f106108e45761010080835404028352916020019161090f565b820191906000526020600020905b8154815290600101906020018083116108f257829003601f168201915b505050505081526020016001820160009054906101000a900473ffffffffffffffffffffffffffffffffffffffff1673ffffffffffffffffffffffffffffffffffffffff1673ffffffffffffffffffffffffffffffffffffffff1681526020016002820154815250509050806000015181602001518260400151935093509350509193909250565b6002818051602081018201805184825260208301602085012081835280955050505050506000915090508060000180546109d090611145565b80601f01602080910402602001604051908101604052809291908181526020018280546109fc90611145565b8015610a495780601f10610a1e57610100808354040283529160200191610a49565b820191906000526020600020905b815481529060010190602001808311610a2c57829003601f168201915b5050505050908060010160009054906101000a900473ffffffffffffffffffffffffffffffffffffffff16908060020154905083565b6000604051905090565b600080fd5b600080fd5b600073ffffffffffffffffffffffffffffffffffffffff82169050919050565b6000610abe82610a93565b9050919050565b610ace81610ab3565b8114610ad957600080fd5b50565b600081359050610aeb81610ac5565b92915050565b600060208284031215610b0757610b06610a89565b5b6000610b1584828501610adc565b91505092915050565b600080fd5b600080fd5b6000601f19601f8301169050919050565b7f4e487b7100000000000000000000000000000000000000000000000000000000600052604160045260246000fd5b610b7182610b28565b810181811067ffffffffffffffff82111715610b9057610b8f610b39565b5b80604052505050565b6000610ba3610a7f565b9050610baf8282610b68565b919050565b600067ffffffffffffffff821115610bcf57610bce610b39565b5b610bd882610b28565b9050602081019050919050565b82818337600083830152505050565b6000610c07610c0284610bb4565b610b99565b905082815260208101848484011115610c2357610c22610b23565b5b610c2e848285610be5565b509392505050565b600082601f830112610c4b57610c4a610b1e565b5b8135610c5b848260208601610bf4565b91505092915050565b60008060408385031215610c7b57610c7a610a89565b5b600083013567ffffffffffffffff811115610c9957610c98610a8e565b5b610ca585828601610c36565b925050602083013567ffffffffffffffff811115610cc657610cc5610a8e565b5b610cd285828601610c36565b9150509250929050565b60008115159050919050565b610cf181610cdc565b82525050565b6000602082019050610d0c6000830184610ce8565b92915050565b610d1b81610ab3565b82525050565b6000602082019050610d366000830184610d12565b92915050565b600060208284031215610d5257610d51610a89565b5b600082013567ffffffffffffffff811115610d7057610d6f610a8e565b5b610d7c84828501610c36565b91505092915050565b600081519050919050565b600082825260208201905092915050565b60005b83811015610dbf578082015181840152602081019050610da4565b60008484015250505050565b6000610dd682610d85565b610de08185610d90565b9350610df0818560208601610da1565b610df981610b28565b840191505092915050565b6000819050919050565b610e1781610e04565b82525050565b60006060820190508181036000830152610e378186610dcb565b9050610e466020830185610d12565b610e536040830184610e0e565b949350505050565b7f4f6e6c792073757065722061646d696e2063616e20706572666f726d2074686960008201527f7300000000000000000000000000000000000000000000000000000000000000602082015250565b6000610eb7602183610d90565b9150610ec282610e5b565b604082019050919050565b60006020820190508181036000830152610ee681610eaa565b9050919050565b7f43616e6e6f742072656d6f76652073757065722061646d696e00000000000000600082015250565b6000610f23601983610d90565b9150610f2e82610eed565b602082019050919050565b60006020820190508181036000830152610f5281610f16565b9050919050565b7f41646472657373206973206e6f7420616e2061646d696e000000000000000000600082015250565b6000610f8f601783610d90565b9150610f9a82610f59565b602082019050919050565b60006020820190508181036000830152610fbe81610f82565b9050919050565b7f4f6e6c792061646d696e2063616e20706572666f726d2074686973206163746960008201527f6f6e000000000000000000000000000000000000000000000000000000000000602082015250565b6000611021602283610d90565b915061102c82610fc5565b604082019050919050565b6000602082019050818103600083015261105081611014565b9050919050565b600081905092915050565b600061106d82610d85565b6110778185611057565b9350611087818560208601610da1565b80840191505092915050565b600061109f8284611062565b915081905092915050565b7f436572746966696361746520494420616c726561647920657869737473000000600082015250565b60006110e0601d83610d90565b91506110eb826110aa565b602082019050919050565b6000602082019050818103600083015261110f816110d3565b9050919050565b7f4e487b7100000000000000000000000000000000000000000000000000000000600052602260045260246000fd5b6000600282049050600182168061115d57607f821691505b6020821081036111705761116f611116565b5b50919050565b60008190508160005260206000209050919050565b60006020601f8301049050919050565b600082821b905092915050565b6000600883026111d87fffffffffffffffffffffffffffffffffffffffffffffffffffffffffffffffff8261119b565b6111e2868361119b565b95508019841693508086168417925050509392505050565b6000819050919050565b600061121f61121a61121584610e04565b6111fa565b610e04565b9050919050565b6000819050919050565b61123983611204565b61124d61124582611226565b8484546111a8565b825550505050565b600090565b611262611255565b61126d818484611230565b505050565b5b818110156112915761128660008261125a565b600181019050611273565b5050565b601f8211156112d6576112a781611176565b6112b08461118b565b810160208510156112bf578190505b6112d36112cb8561118b565b830182611272565b50505b505050565b600082821c905092915050565b60006112f9600019846008026112db565b1980831691505092915050565b600061131283836112e8565b9150826002028217905092915050565b61132b82610d85565b67ffffffffffffffff81111561134457611343610b39565b5b61134e8254611145565b611359828285611295565b600060209050601f83116001811461138c576000841561137a578287015190505b6113848582611306565b8655506113ec565b601f19841661139a86611176565b60005b828110156113c25784890151825560018201915060208501945060208101905061139d565b868310156113df57848901516113db601f8916826112e8565b8355505b6001600288020188555050505b505050505050565b6000608082019050818103600083015261140e8187610dcb565b905081810360208301526114228186610dcb565b90506114316040830185610d12565b61143e6060830184610e0e565b95945050505050565b7f4164647265737320697320616c726561647920616e2061646d696e0000000000600082015250565b600061147d601b83610d90565b915061148882611447565b602082019050919050565b600060208201905081810360008301526114ac81611470565b9050919050565b7f4365727469666963617465206e6f7420666f756e640000000000000000000000600082015250565b60006114e9601583610d90565b91506114f4826114b3565b602082019050919050565b60006020820190508181036000830152611518816114dc565b905091905056fea2646970667358221220b17da153f28ac79b089e2cc93f024af73064b621522b280d84e01488f24731da64736f6c63430008140033",
  "linkReferences": {},
  "deployedLinkReferences": {}
}